:1000000000200010430000004100000041000000FB
:1000100041000000410000004100000041000000DC
:1000200041000000410000004100000041000000CC
:1000300041000000410000004100000041000000BC
:10004000FEE70B480B490C4A091A05D013780370D8
:10005000013201300139F9DC08480949091A04D094
:100060005B40037001300139FBDC00F0EFFCFEE780
:10007000000000102C000010B00C00003000001038
:1000800030000010E00C00003138C0B235289ABFB3
:10009000014B185C00207047440B00000F289DBFE7
:1000A000024BC01890F836004E207047440B0000F9
:1000B00070B506461078FFF7E7FF04465078FFF763
:1000C000E3FF80EA0414E4B28C4216DC93783A2B06
:1000D00013D1314603328B1B9C4201DC204670BD9C
:1000E0001078FFF7D1FF054612F8010FFFF7CCFF9C
:1000F00080EA051001F8010BEDE74FF0FF34EDE762
:100100002DE9F8434B000B3323F0070300AFADEBB1
:10011000030D80460E466C466D46002000F0F6FB4F
:100120000D28A5EB040905F8010BF6D100232246A2
:100130003146404604F80930FFF7BAFFBD46BDE836
:10014000F8832DE9F04107461B4C01F00F032344CF
:1001500093F83660C1F30313234400200D4693F84F
:10016000361000F0DFFB3146002000F0DBFB3A21C7
:10017000002000F0D7FB3E46F31B9D4209DC0D2119
:10018000002000F0CFFBBDE8F0410A21002000F084
:10019000C9BB16F8013B002003F00F02224492F87D
:1001A000368004EB131393F8361000F0BBFB414686
:1001B000002000F0B7FBDFE7440B00002DE9F0471B
:1001C000C17890F801E086788579C27990F8099035
:1001D00090F80AC0C37A90F80D80877BC47B90F8B2
:1001E00005A080F8098080F801A080F8059080F8CB
:1001F0000DE080F802C0877186728573C470C1718A
:10020000C272C373BDE8F08710B5431E01390F30C9
:1002100013F8012F11F8014F834282EA04021A7089
:10022000F6D110BD4840704710B50446C0B04FF439
:1002300080720649684600F00FFC04F0F00004F0FC
:100240000F036844C05C40B010BD00BF8A0B0000C3
:1002500038B5451E00F10F0415F8010FFFF7E4FF54
:10026000A5422870F8D138BD2DE9F0410C4605466D
:100270001646487BFFF7D8FF227856404640F6B234
:100280002E70A07BFFF7D0FF637843405FFA83F8BE
:1002900085F80180E07BFFF7C7FFA7784740FFB2F2
:1002A000AF70207BFFF7C0FFE3785840C0B2E87022
:1002B00023795E402E71637988EA03036B71A2791A
:1002C0005740AF71E2795040E871227A56402E7261
:1002D000627A53406B72A27A5740AF72E27A504012
:1002E000E872227B56402E73627B53406B73A37B74
:1002F0005F40AF73E37B5840E873BDE8F08110F0D6
:10030000800F4FEA400018BF80F01B00C0B270475A
:100310002DE9FF476C4603460246264600F11007CA
:10032000254610685168083203C5BA422C46F7D1F9
:1003300031460D78CA7828468E78FFF7E0FF4C7872
:1003400080462046FFF7DBFF814688EA00005040E8
:100350007040604018703046FFF7D1FF89EA00090D
:1003600082EA090986EA090985EA090983F8019000
:1003700082461046FFF7C3FF8AEA000A88EA0008AF
:1003800082EA0A0286EA08066A40754062406C40CA
:100390009A70DC7004339F4201F10401C9D104B0AA
:1003A000BDE8F08702460723002010B5FFF7A7FF3E
:1003B00041FA03F4E40744BF5040C0B213F1FF33E5
:1003C000F4D210BD70B50146FFF7ECFF0646FFF70B
:1003D000E9FF314605463046FFF7E4FF0146044693
:1003E0002846FFF7DFFF05462046FFF7DBFF014603
:1003F0002846FFF7D7FF0146FFF7D4FF0146FFF776
:10040000D1FF044601462846FFF7CCFF01462046AF
:10041000FFF7C8FFBDE870400146FFF7C3BF704754
:100420000B46F0B504461F4E85B07168306815461E
:1004300001AA03C2318901AF11801946234601F197
:10044000100251F8040B914243F8040BF9D12946EC
:100450002046FFF7D9FE00262046FFF7F9FE20468A
:10046000FFF7ACFEFFF754FFBA5D29462846FFF7B9
:10047000FBFE013629462046FFF7C6FE092EEBD1CA
:100480002046FFF7E5FE2046FFF798FE294628465E
:100490003622FFF7E9FE2946204605B0BDE8F040C8
:1004A000FFF7B2BE8A0C00002DE9F0412C488EB057
:1004B00000F0D2F800284CD00AAA1746294B03F1C5
:1004C0001005144618685968083303C4AB42224625
:1004D000F7D14FF0100801216846FFF711FE0128FF
:1004E00006463BD19DF80050FDB1012DF3D11021FE
:1004F00006A8FFF705FE10280446ECD1002101A84C
:10050000FFF7FEFD06460028E5D1294600F06CF80D
:1005100001AB3A4606A902A8FFF782FF31463046F2
:1005200000F062F8214602A810E00EAC04F8318D0C
:1005300001462046FFF705FE314620468DF807802C
:10054000FFF7FFFD314620468DF80750FFF7F9FD14
:10055000C1E74FF0FF300EB0BDE8F0810020FAE7B0
:1005600000000010940C0000054B9B7858430323B7
:1005700090FBF3F0002801DD0138FDD1704700BF8A
:10058000300000100146002208B58A4200DB08BD99
:100590004FF47A70FFF7E8FF0132F6E7024B0021D3
:1005A0001B689869704700BF2800001001280CD014
:1005B00003D3022811D000207047094B1A6843F674
:1005C000FC73D05800F001007047054B1A6843F6E1
:1005D000FC73D058C0F340007047024BF6E700BFF1
:1005E000100000100C000010012811D002D30228C6
:1005F00017D070470E4B1A6843F6FC7321B1D158DF
:1006000041F00101D1507047D15821F00101F9E7C3
:10061000074B1A6843F6FC7329B1D15841F0020127
:10062000F0E7044BF5E7D15821F00201EAE700BFFB
:10063000100000100C000010024B1B68586900F0FD
:10064000010070471C000010024B1B685869C0F382
:10065000401070471C0000102DE9F74F80460568D8
:10066000A14810240368A14ED3F880205FFA85FCCE
:1006700042F48032C3F880209D4A3560116801221F
:100680008A67CA670C6140F20124C1F8A420C1F84E
:10069000A8200C634C63D3F88010944541F02001EE
:1006A000C3F88010D3F88010009041F04001C3F8E7
:1006B0008010D3F8801041F48051C3F8801059683D
:1006C00021F002015960596841F00201596005D0DA
:1006D00026D3BCF1020F05D00024E1E062464FF0C2
:1006E000030900E091464FF0000EC5F30721019188
:1006F000C5F307450124019F0EF1010A0AFB07F12A
:10070000B1FBF4FB04FB1B1008B95D450AD00134B2
:10071000B4F5807FF4D1BAF1200FD646EAD1DBE7F9
:100720000022DCE74D009C3DA42D0FD98D009C3D9F
:10073000A42D40F2B980CD009C3DA42D40F2B6809E
:1007400009019C39A42900F2CD800320791E1329C8
:100750004EEA401000F2AC8000211962D3F8381242
:10076000BCF1000F40F0AA8041F02001C3F838121C
:10077000C82300BF013BFCD1009B1B681A645A6C64
:1007800042F001025A645A6C22F001025A645A6C17
:1007900042F001025A645A6CD507FCD59860D3F830
:1007A000382222F08002C3F83822DA68D107FCD55B
:1007B000C3F870905A6F42F001025A675A6F22F0E4
:1007C00001025A675A6F42F001025A675A6FD20704
:1007D000FCD5B1789C67142973D80020454A12686B
:1007E0001061454A126802F50040046844F00104B3
:1007F0000460046844F0020404604048006800F5A6
:100800000040046824F00204046043F6FC701458AD
:1008100024F001041450145824F002041450384AEF
:10082000C3F898101368D96841F08001D960052198
:100830009962996A41F0800199620021596004210E
:100840001960D96821F08001D960D96841F00301AD
:10085000D960D96821F00801D960D96821F0040174
:10086000D960FFF7E9FE002837D1FFF7EDFE044617
:100870000028FAD0234AB378126803EB830353614C
:100880001361402313606FF07F421F4B1B685A6156
:100890009A6198F803201AB305221A6100F0D2F881
:1008A000204603B0BDE8F08F01204FE702204DE75E
:1008B0000F3F0A2F3FF652AF02214EE721F02001F1
:1008C00054E7282903D80B4A0120126888E7322907
:1008D00087D8084A0220126882E713681B68C0E7BD
:1008E0000422DAE70446DBE70400001030000010C1
:1008F0000800001024000010100000100C00001070
:100900001C000010200000102800001008B510B9CD
:10091000FFF792FEFBE7024B1B681868C0B208BDE8
:100920001C00001008B510B9FFF78EFEFBE7024B64
:100930001B68196008BD00BF1C0000102DE9F041C4
:10094000202541EA400C4FF03C0E042738214FF09F
:1009500024081820354E346825603468656805F031
:10096000F805282D39D014D8102D03D007D805B399
:10097000082DF3D1C4F808C02760A061EDE7182D59
:100980001ED0202DEAD11423236028230220A36146
:1009900014E0402D2DD006D8302D24D0382DDDD1B7
:1009A000C4F80080E9E7502D2AD0582D35D0482DC5
:1009B000E8E71423236028230120A361BDE8F08128
:1009C0002BB115780132A5602760A161C5E714221B
:1009D00022602822A2610020F0E7013BF1D114221D
:1009E0002260A561F7E71423236028230320A36175
:1009F000E4E7012B8ABF2760C4F818E0A161ACE7E7
:100A0000A468551C14703268013B012B8ABF176023
:100A1000C2F818E091612A469FE70BB1A3681370F2
:100A2000142233681A6028229A61D4E7200000104B
:100A300013460A460121FFF781BF13460A460021EB
:100A4000FFF77CBF62B6704772B6704740404940BE
:100A5000FFF72AFD70470000844641EA000313F0C7
:100A6000030349D1403A23D30B6803604B684360CA
:100A70008B688360CB68C3600B6903614B6943611A
:100A80008B698361CB69C3610B6A03624B6A436202
:100A90008B6A8362CB6AC3620B6B03634B6B4363EA
:100AA0008B6B8363CB6BC36340304031403ADBD206
:100AB00030320BD30B6803604B6843608B688360F4
:100AC000CB68C36010301031103AF3D20C3205D32A
:100AD00051F8043B40F8043B043AF9D2043208D000
:100AE000D2071CBF11F8013B00F8013B01D30B8872
:100AF00003806046704700BF082A13D38B07B1D02C
:100B000010F00303AED0C3F10403D21ADB071CBFFD
:100B100011F8013B00F8013BA4D331F8023B20F867
:100B2000023B9FE7043AD9D3013A11F8013B00F8A0
:100B3000013BF9D20B7803704B7843708B7883704C
:100B4000604670470102030405060708090000001B
:100B5000000000000A0B0C0D0E0F0000000000004A
:100B60000000000000000000000000000000000085
:100B7000000000000A0B0C0D0E0F303132333435FB
:100B800036373839414243444546637C777BF26BC4
:100B90006FC53001672BFED7AB76CA82C97DFA5983
:100BA00047F0ADD4A2AF9CA472C0B7FD9326363FE8
:100BB000F7CC34A5E5F171D8311504C723C31896D5
:100BC000059A071280E2EB27B27509832C1A1B6E77
:100BD0005AA0523BD6B329E32F8453D100ED20FC19
:100BE000B15B6ACBBE394A4C58CFD0EFAAFB434D1C
:100BF000338545F9027F503C9FA851A3408F929DB9
:100C000038F5BCB6DA2110FFF3D2CD0C13EC5F97A8
:100C10004417C4A77E3D645D197360814FDC222AAE
:100C2000908846EEB814DE5E0BDBE0323A0A4906E5
:100C3000245CC2D3AC629195E479E7C8376D8DD559
:100C40004EA96C56F4EA657AAE08BA78252E1CA631
:100C5000B4C6E8DD741F4BBD8B8A703EB566480391
:100C6000F60E613557B986C11D9EE1F8981169D914
:100C70008E949B1E87E9CE5528DF8CA1890DBFE697
:100C8000426841992D0FB054BB1601020408102090
:100C900040801B364B3AAAC99BA47C34A50B99B55E
:040CA000C875DB94A4
:0C0CA40000000000000000000000000044
:100CB000000C0C0100800440004004400000005083
:100CC000000001500000025000000350008000406E
:0C0CD0000000004000C0034000E000E015
:00000001FF
